{
  "contractName": "TheMind",
  "abi": [
    {
      "constant": true,
      "inputs": [],
      "name": "questionCount",
      "outputs": [
        {
          "name": "",
          "type": "uint256"
        }
      ],
      "payable": false,
      "stateMutability": "view",
      "type": "function"
    },
    {
      "inputs": [],
      "payable": false,
      "stateMutability": "nonpayable",
      "type": "constructor"
    },
    {
      "anonymous": false,
      "inputs": [
        {
          "indexed": true,
          "name": "questioner",
          "type": "address"
        },
        {
          "indexed": true,
          "name": "id",
          "type": "bytes32"
        },
        {
          "indexed": false,
          "name": "question",
          "type": "string"
        }
      ],
      "name": "QuestionAsked",
      "type": "event"
    },
    {
      "constant": false,
      "inputs": [
        {
          "name": "question",
          "type": "string"
        }
      ],
      "name": "askQuestion",
      "outputs": [],
      "payable": false,
      "stateMutability": "nonpayable",
      "type": "function"
    }
  ],
  "bytecode": "0x60806040526000805534801561001457600080fd5b506102af806100246000396000f30060806040526004361061004c576000357c0100000000000000000000000000000000000000000000000000000000900463ffffffff1680631468aa2c14610051578063602bdec81461007c575b600080fd5b34801561005d57600080fd5b506100666100e5565b6040518082815260200191505060405180910390f35b34801561008857600080fd5b506100e3600480360381019080803590602001908201803590602001908080601f01602080910402602001604051908101604052809392919081815260200183838082843782019150505050505091929192905050506100eb565b005b60005481565b6000806000815480929190600101919050555060005433604051602001808381526020018273ffffffffffffffffffffffffffffffffffffffff1673ffffffffffffffffffffffffffffffffffffffff166c01000000000000000000000000028152601401925050506040516020818303038152906040526040518082805190602001908083835b6020831015156101985780518252602082019150602081019050602083039250610173565b6001836020036101000a0380198251168184511680821785525050505050509050019150506040518091039020905080600019163373ffffffffffffffffffffffffffffffffffffffff167fdc747e9118badb1cf456dce314ec190c7168d1f881b4df51549cc6f6f66a6242846040518080602001828103825283818151815260200191508051906020019080838360005b8381101561024557808201518184015260208101905061022a565b50505050905090810190601f1680156102725780820380516001836020036101000a031916815260200191505b509250505060405180910390a350505600a165627a7a72305820298b00a6c2fdbdbd582a3f8fba44d86c4b30d0e2d15743f784f111ddc1ab36a00029",
  "source": "pragma solidity ^0.4.0;\n\ncontract TheMind {\n    constructor() public {\n\n    }\n\n    uint256 public questionCount  = 0;\n\n    event QuestionAsked(\n        address indexed questioner,\n        bytes32 indexed id,\n        string question\n    );\n\n    function askQuestion(string question) public {\n        questionCount ++;\n        bytes32 questionId = keccak256(abi.encodePacked(questionCount, msg.sender));\n        emit QuestionAsked(msg.sender, questionId, question);\n    }\n}\n",
  "sourcePath": "/home/will/Blockternship/drizzle/TheCommunityMind/contracts/TheMind.sol",
  "compiler": {
    "name": "solc",
    "version": "0.4.24+commit.e67f0147.Emscripten.clang"
  },
  "schemaVersion": "2.0.1",
  "updatedAt": "2018-09-19T13:23:20.852Z"
}